:100000000C940B040C943C040C943C040C943C04A1
:100010000C943C040C943C040C943C040C943C0460
:100020000C943C040C943C040C943C040C943C0450
:100030000C943C040C943C040C943C040C943C0440
:100040000C943C040C943C040C943C040C943C0430
:100050000C943C040C943C040C943C040C94F41953
:100060000C943C040C94DD1E0C94A91F0C943C04CD
:100070000C943C040C943C040C943C040C943C0400
:100080000C943C040C943C040C943C040C943C04F0
:100090000C94101F0C94E81F0C943C040C943C042A
:1000A0000C943C040C943C040C943C040C943C04D0
:1000B0000C943C040C943C040C943C040C943C04C0
:1000C0000C943C040C943C040C943C040C94431F8E
:1000D0000C9427200C943C040C94761F0C946620FE
:1000E0000C943C04331B361B291B2D1B6D1B3A1B28
:1000F0003E1B441B481B4C1B521B561B5A1B6D1BA3
:10010000601B641B681B0C94441B0C94561E0C94BF
:10011000F83A0C9419350C94E8360C94523E0C9431
:10012000761E0C94363B0C94F4350C94F70C0C941E
:10013000E9340C94C53F0C94FD340C943A1B0C9498
:10014000EA340C9423240C943A240C944A3F0C94E3
:100150004C1B0C945A1B0C94681B0C942D210C9472
:1001600088360C94273A0C942D1B0C942A1E0C9460
:100170003E1B0C946D1B0C94811E0C94BE3A0C9487
:10018000521B0C946C240C94361B0C943A1E0C9449
:1001900012360C94843A0C941A350C9428250C943D
:1001A000601B0C9434390C9495240C941C3A0C94D8
:1001B0005F350C948B240C94F1340C94291E0C9410
:1001C0008E2C0C94561B0C9440340C94A3350C9438
:1001D000641B0C94291B0C944E3A0C94063E0C9410
:1001E000331B0C9409350C9450240C94E7360C9472
:1001F000DA1B0C943B3A0C94481B0000090A0208D5
:100200000B0C0D07060304010000000000000000B5
:1002100000000000000000000000000000000000DE
:1002200000000000000011100F000000000000009E
:1002300000000000000000000000000000000000BE
:1002400001021020200808102040102040800201E8
:1002500002010804020101020408102040808040CD
:1002600020100804020180040201804020100804CC
:10027000020108040201010204081020408001026A
:100280000408102040800505050507050808080832
:10029000020202020A0A080804040404010101011E
:1002A0000101010103030303030303030407070719
:1002B0000C0C0C0C0C0C0C0C0202020206060606BE
:1002C000060606060B0B0B0B0B0B0B0B000022009C
:1002D000250028002B002E00310034000201000010
:1002E000050108010B0100002100240027002A005D
:1002F0002D003000330001010000040107010A0154
:100300007C3C3E5E2B3D3F2F5B5D3B2C2A225C00FC
:1003100000000000003E5B4F5B3E3E6B4F6B3E1C9F
:100320003E7C3E1C183C7E3C181C577D571C1C5EB6
:100330007F5E1C00183C1800FFE7C3E7FF0018248D
:100340001800FFE7DBE7FF30483A060E2629792937
:1003500026407F050507407F05253F5A3CE73C5A6C
:100360007F3E1C1C08081C1C3E7F14227F22145F49
:100370005F005F5F06097F017F006689956A6060A4
:1003800060606094A2FFA29408047E040810207E9E
:10039000201008082A1C08081C2A08081E10101023
:1003A000100C1E0C1E0C30383E3830060E3E0E0669
:1003B000000000000000005F0000000700070014BC
:1003C0007F147F14242A7F2A12231308646236497B
:1003D0005620500008070300001C22410000412263
:1003E0001C002A1C7F1C2A08083E08080080703068
:1003F00000080808080800006060002010080402D7
:100400003E5149453E00427F4000724949494621DC
:1004100041494D331814127F1027454545393C4A50
:100420004949314121110907364949493646494967
:10043000291E0000140000004034000000081422AF
:10044000411414141414004122140802015909061D
:100450003E415D594E7C1211127C7F494949363E1E
:10046000414141227F4141413E7F494949417F0904
:100470000909013E414151737F0808087F00417F0F
:1004800041002040413F017F081422417F4040400D
:10049000407F021C027F7F0408107F3E4141413EA5
:1004A0007F090909063E4151215E7F091929462627
:1004B0004949493203017F01033F4040403F1F202B
:1004C00040201F3F4038403F631408146303047802
:1004D00004036159494D43007F4141410204081022
:1004E00020004141417F040201020440404040405D
:1004F000000307080020545478407F2844443838CB
:1005000044444428384444287F385454541800083C
:100510007E090218A4A49C787F0804047800447D16
:1005200040002040403D007F1028440000417F40B3
:10053000007C047804787C08040478384444443807
:10054000FC1824241818242418FC7C0804040848E7
:100550005454542404043F44243C4040207C1C2038
:1005600040201C3C4030403C44281028444C909093
:10057000907C4464544C44000836410000007700ED
:1005800000004136080002010204023C2623263CFA
:100590001EA1A161123A4040207A38545455592185
:1005A000555579412254547842215554784020546D
:1005B0005579400C1E5272123955555559395454BB
:1005C000545939555454580000457C410002457D2A
:1005D000420001457C407D1211127DF0282528F053
:1005E0007C545545002054547C547C0A097F493280
:1005F000494949323A4444443A324A4848303A41F7
:1006000041217A3A42402078009DA0A07D3D42429F
:10061000423D3D4040403D3C24FF2424487E494328
:10062000662B2FFC2F2BFF0929F620C0887E09039B
:1006300020545479410000447D413048484A3238C2
:100640004040227A007A0A0A727D0D19317D2629EE
:10065000292F28262929292630484D4020380808E6
:10066000080808080808382F10C8ACBA2F1028341A
:10067000FA00007B000008142A142222142A14080D
:100680005500550055AA55AA55AAFF55FF55FF001C
:100690000000FF00101010FF00141414FF001010D1
:1006A000FF00FF1010F010F0141414FC001414F7E5
:1006B00000FF0000FF00FF1414F404FC14141710D2
:1006C0001F10101F101F1414141F00101010F00022
:1006D0000000001F101010101F10101010F010005C
:1006E0000000FF101010101010101010FF1000006C
:1006F00000FF140000FF00FF00001F10170000FCA7
:1007000004F414141710171414F404F40000FF0078
:10071000F714141414141414F700F7141414171401
:1007200010101F101F141414F4141010F010F00007
:10073000001F101F0000001F14000000FC14000028
:10074000F010F01010FF10FF141414FF141010100C
:100750001F00000000F010FFFFFFFFFFF0F0F0F0BF
:10076000F0FFFFFF0000000000FFFF0F0F0F0F0F53
:100770003844443844FC4A4A4A347E02020606029F
:100780007E027E0263554941633844443C04407E06
:10079000201E2006027E020299A5E7A5991C2A497F
:1007A0002A1C4C7201724C304A4D4D30304878480A
:1007B00030BC625A463D3E494949007E0101017EF6
:1007C0002A2A2A2A2A44445F444440514A44404049
:1007D000444A51400000FF0103E080FF0000080888
:1007E0006B6B083612362436060F090F0600001808
:1007F000180000001010003040FF0101001F01012F
:100800001E00191D1712003C3C3C3C00000000007B
:10081000F70C2D21232411241FBECFEFD1E2DEBF20
:10082000CDBF00E00CBF14E0A0E0B2E0E8EDFFE8CF
:1008300000E00BBF02C007900D92A238B107D9F7B4
:1008400029E0A2E8B4E001C01D92A33DB207E1F7A0
:1008500014E0CBE0D4E000E006C021970109802F2E
:10086000FE010E94B147C830D10780E00807A9F710
:100870000E94F0190C94D9440C940000009751F098
:10088000FC013081FB012081321721F0FC018181C4
:100890009281F4CF0895EF92FF920F931F93CF931D
:1008A000DF93EB01CC0FDD1FDC01ED91FC91EC0F30
:1008B000FD1F20813181232B59F57C018AE090E0D6
:1008C0000E94211E8C018AE190E00E94231EDC011F
:1008D00024E030E02D933D93FC014896158214826C
:1008E00013821282178216823696E817F907B1F73B
:1008F000F801B183A08384E090E09187808717821C
:100900001682D7016D917C91C60FD71F198308837A
:10091000DF91CF911F910F91FF90EF9008950F936A
:100920001F93CF93DF938C01DC016C93C62FD0E033
:10093000CE01880F991F0E94231EF80192838183A4
:1009400020E030E02C173D077CF4C901880F991F87
:10095000D8011196ED91FC911297E80FF91F1182C1
:1009600010822F5F3F4FEECFDF91CF911F910F91FC
:100970000895EF92FF920F931F93CF93DF93EC01B3
:10098000162F042F0E948F0483E090E00E94211E06
:100990007C01612F0E948F04FD82EC821F821E82E7
:1009A000198618860B8310E07801EE0CFF1CC70136
:1009B0000E94231E9B878A87C7010E94231E9D8752
:1009C0008C8780E090E08017910794F49C01220FBF
:1009D000331FEA85FB85E20FF31F118210824C85DD
:1009E0005D85FA01E20FF31F118210820196EBCFB1
:1009F0001F861E86198A188ADF91CF911F910F9149
:100A0000FF90EF900895CF92DF92EF92FF920F93B5
:100A10001F93CF93DF93CDB7DEB727970FB6F89428
:100A2000DEBF0FBECDBF8C016AEC73E0CE01019634
:100A30000E94A71DD801ED91FC910680F781E02D61
:100A4000C8011995682F803249F08A3039F0853411
:100A500029F0CE0101960E94021EECCFCE01019634
:100A60000E94161E6B017C01CE0101960E94391D69
:100A7000C60127960FB6F894DEBF0FBECDBFDF913B
:100A8000CF911F910F91FF90EF90DF90CF9008953D
:100A90006F927F928F929F92AF92BF92CF92DF928E
:100AA000EF92FF920F931F93CF93DF9300D000D06C
:100AB000CDB7DEB73C014B01CE0101960E94344018
:100AC00085E894E00E943A4029833A834B835C8313
:100AD0006D837E838D819E810A978F3D934080F741
:100AE0006B817C81072E000C880B990B1F921F9243
:100AF0001F921F922FE3A22EBB24B394C12CD12CA2
:100B00001CEAE12E13E0F12E00E010E028E730E0CF
:100B100040E050E00E944D2264517109F30171835D
:100B2000608369817A81072E000C880B990B1F92D4
:100B30001F921F922FEE2F93A12CB12C650118E963
:100B4000E12E13E0F12E00E010E026E930E040E075
:100B500050E00E944D22F4017183608364E670E0EE
:100B600080E090E00E946F1A0FB6F894DEBF0FBECF
:100B7000CDBF26960FB6F894DEBF0FBECDBFDF9176
:100B8000CF911F910F91FF90EF90DF90CF90BF908A
:100B9000AF909F908F907F906F900895FF920F93EA
:100BA0001F93CF93DF93EB0163E089E994E00E9408
:100BB000103A6FEF7FEF89E994E00E94163AF090C7
:100BC000040284E0CC0FDD1F8A95E1F7E0918204F6
:100BD000F0918304EC0FFD1F82859385823091058F
:100BE00071F02CF40197A1F466EC7CEF0DC083301A
:100BF000910541F0049761F46DEE7FEF05C06FEF52
:100C000077E002C060E374E889E994E00E94163A54
:100C1000809104028130B1F5E0918204F091830467
:100C2000EC0FFD1F60817181693121E072070CF0CA
:100C300089C0428153814E5F5F4F6C5F7F4F89E96E
:100C400094E00E940A3AE0918204F0918304EC0F50
:100C5000FD1F868597850A970CF461C062E089E9DB
:100C600094E00E94103AE0918204F0918304EC0F2A
:100C7000FD1F428153814B5F5F4F608171816F5FC8
:100C80007F4F49C0823009F05DC0E0918204F0914D
:100C90008304EC0FFD1F80819181883121E0920750
:100CA0000CF450C0228133812E5F3F4F049608E13F
:100CB00011E0B8010E945C47A901BC0189E994E0F8
:100CC0000E940A3AE0918204F0918304EC0FFD1F28
:100CD000868597850A971CF162E089E994E00E9475
:100CE000103AE0918204F0918304EC0FFD1F4281E1
:100CF00053814B5F5F4F608171816F5F7F4F8F2D9D
:100D000090E00197809F9001819F300D909F300D62
:100D10001124621B730B89E994E00E940A3A8091C6
:100D2000820490918304C80FD91F6E857F854AE0A5
:100D300050E089E994E0DF91CF911F910F91FF90EE
:100D40000C94FF1CDF91CF911F910F91FF9008959C
:100D50007F928F929F92AF92BF92CF92DF92EF924B
:100D6000FF920F931F93CF93DF93CDB7DEB76097BA
:100D70000FB6F894DEBF0FBECDBF50E1E52EF12CCB
:100D800001E010E070E0E0E17E2E061717070CF09E
:100D900045C0FC01C080D180A6014E0D5F1DFA0147
:100DA000DE011196272D01900D922A95E1F7FA01A7
:100DB000A080B180980121503109DA014D0140E154
:100DC000841A9108F40140815181A416B5066CF48F
:100DD000F401472D01900D924A95E1F72150310918
:100DE000D4012F3FFFEF3F0749F7BA82A9822F5F57
:100DF0003F4F44E0220F331F4A95E1F7D601A20F7F
:100E0000B31FFE013196272D01900D922A95E1F72F
:100E10000F5F1F4FF0E1EF0EF11CB7CF60960FB6DA
:100E2000F894DEBF0FBECDBFDF91CF911F910F9120
:100E3000FF90EF90DF90CF90BF90AF909F908F90FA
:100E40007F9008950F931F93CF93DF93E091040257
:100E5000F0E03197C8E1D1E0EC9FD001ED9FB00DFB
:100E6000FC9FB00D11242A0F3B1F4150510946171A
:100E700057077CF1FA01E61BF70BF7FD3196F59564
:100E8000E795E60FF71FEF01B4E0CC0FDD1FBA9531
:100E9000E1F7C80FD91FA881B981A217B30784F45D
:100EA0005896A217B3078CF08A819B81801791070F
:100EB00084F448968017910764F08C819D810BC063
:100EC0002A173B0714F4AF01D0CFBF016F5F7F4FEC
:100ED000CECF8FEF9FEFDF91CF911F910F910895AC
:100EE000CF93DF93FC01EB019881892F90E060851F
:100EF00071850E94484746E0489F9001499F300D08
:100F000011240190F081E02DE20FF31FBE018081DA
:100F100091810E943E0421E0892B09F420E0822F78
:100F2000DF91CF910895FC0186819781892B29F06B
:100F30008081918140E050E005C02085318540E00E
:100F400050E00BC09A01FC0106964F5F5F4F648131
:100F50007581672BB9F340815181B901CA010895A8
:100F6000CF92DF92EF92FF920F931F93CF93DF9375
:100F7000DB012D913C9111971296ED91FC91139705
:100F8000418152814115510581F5FC010085118592
:100F900066E0629FE001639FD00D11242F5F3F4FF9
:100FA00060E070E02017310700F5DC01ED91FC9165
:100FB000DF01A60FB71FAC0FBD1F1A96CD90DC90B6
:100FC0001B977901BFEFEB1AFB0A6A5F7F4FCD28B1
:100FD00011F49701E7CF46E0429FC001439F900D77
:100FE0001124E80FF91F40815181B901CA01DF9135
:100FF000CF911F910F91FF90EF90DF90CF900895C8
:101000000F931F93CF93DF93EC018B0185E090E06A
:101010000E94211EFC01888199811082D8012C91A7
:1010200020831482138292838183A881B9811097CF
:1010300029F01496FC93EE93139702C0FB83EA8386
:10104000F983E8838C819D8101969D838C83DF9158
:10105000CF911F910F910895CF92DF92EF92FF925F
:101060000F931F93CF93DF93EC017B018B01000F54
:10107000111F0530110510F405E010E0C8010E94B1
:10108000231E6C0188819981892B59F4FB82EA82A5
:101090001D830C83888199810097C9F00E94271EC7
:1010A00016C0F6019F012C193D094A815B81C701D9
:1010B0004E155F0508F4CA012817390738F78881EB
:1010C0009981DC01A20FB31F8C918193EBCFD98260
:1010D000C882DF91CF911F910F91FF90EF90DF9029
:1010E000CF9008950F931F93CF93DF93EC018B0163
:1010F0008A819B812C813D818217930759F4BC0121
:101100006F5F7F4FCE010E942C088A819B810197DF
:101110009B838A83F8012081E881F9818A819B8100
:10112000E80FF91F20838A819B8101969B838A8324
:10113000DF91CF911F910F9108956F927F928F92BF
:101140009F92AF92BF92CF92DF92EF92FF920F9356
:101150001F93CF93DF93CDB7DEB761970FB6F894A7
:10116000DEBF0FBECDBF3C018A829B82AC82BD82B6
:10117000CE82DF82E886F9860A871B872C873D8727
:101180004E875F87688B798BEE80FF80A884B98457
:101190000A851B85DC0114968D919C911597B701EA
:1011A00001960E944B046701DD24CC0CDD1CD301A9
:1011B0001196ED91FC911297EC0DFD1D80819181AE
:1011C000892BD1F5F1E0AF16B10409F08AC0F30123
:1011D0008681978101969783868363E172E08BE332
:1011E00095E00E94171CD30116966D917C9117977C
:1011F0004AE050E08BE395E00E94FF1C8C859D85C2
:101200000497D1F4AA0CBB1CF301EA0DFB1D248545
:1012100035858E859F85820F931F9587848764E32C
:1012200072E08BE395E00E94341C4AE050E0B70185
:101230008BE395E00E94FF1C000F111FD3011A964B
:10124000ED91FC911B97E00FF11F80819181009738
:1012500021F586E090E00E94211E6C01FC011382C2
:1012600012821182108260E070E00E942C08D3018B
:101270001A96ED91FC911B97E00FF11FD182C0826D
:10128000E9821A96ED91FC911B97E00FF11FBE01C8
:101290006F5F7F4F808191813AC0F301218132815C
:1012A000F901EC0DFD1D20813181232B61F1B70186
:1012B000C30101960E944B0461960FB6F894DEBFFD
:1012C0000FBECDBFDF91CF911F910F91FF90EF9097
:1012D000DF90CF90BF90AF909F908F907F906F9056
:1012E0000895F3018085918501969187808764E256
:1012F00072E08BE395E00E94171CD30118966D9164
:101300007C91199775CFE982BE016F5F7F4F0E9474
:101310007208D3011C96ED91FC911D97E00FF11F0F
:1013200080819181019691838083C1CFCF93DF9398
:10133000EC01888199812A813B81DC011196ED9134
:10134000FC9112978217930719F01482138202C03E
:101350001B821A82F983E8830E94251E8C819D815D
:1013600001979D838C83DF91CF910895EF92FF9237
:101370000F931F93CF93DF938C01FB01808190E04B
:10138000D80118966D917C9119970E94484746E0C4
:10139000489F9001499F300D1124D801CD91DC91D7
:1013A000C20FD31FE880F980BF01C7010E943E042D
:1013B0008E159F0521F4CE010E94960926C02A8130
:1013C0003B81DC011396ED91FC91149782179307F2
:1013D00029F412821182FB83EA8310C0DC0111968A
:1013E0002D913C9112973283218311962D913C913E
:1013F0001297D9011496FC93EE9313970E94251E21
:101400008C819D8101979D838C83F80186819781D2
:10141000019797838683DF91CF911F910F91FF9062
:10142000EF9008950F931F93CF93DF93FC01C0813A
:10143000D181209721F18C01FE0132978081918129
:1014400046E0489F9001499F300D1124C20FD31FE1
:10145000F80180819181C817D90749F026978C81BE
:101460009D81892BA9F3CE010E949609F8CFCE0168
:101470000297DF91CF911F910F910C94271EDF915E
:10148000CF911F910F910895EF92FF920F931F93A9
:10149000CF93DF937C01C0E0D0E0F701408150E0C2
:1014A00021813281C417D5079CF4CE01880F991F82
:1014B000F901E80FF91F008111810115110531F0C3
:1014C000C8010E94120AC8010E94251E2196E5CF7C
:1014D0002115310549F0C901DF91CF911F910F917D
:1014E000FF90EF900C94271EDF91CF911F910F91E9
:1014F000FF90EF900895EF92FF920F931F93CF9379
:10150000DF938C01C0E0D0E0D80113968C91139743
:1015100090E0C817D907DCF4D8011A96ED91FC9138
:101520001B97CE01880F991FE80FF91FE080F1800B
:10153000E114F10451F0F70180819181009711F0DD
:101540000E94271EC7010E94251E2196DDCF1C96F2
:101550008D919C911D97009711F00E94271EF80114
:10156000848195810097E9F0FC01329720813181D7
:10157000E901CC0FDD1F2C0F3D1FEC01C20FD31F63
:10158000CE01D80114962D913C911597239782177F
:10159000930721F0CE010E94440AF2CF02970E94E5
:1015A000271EF80182859385009711F00E94271E5F
:1015B000C801DF91CF911F910F91FF90EF900C9494
:1015C000440A9F92AF92BF92CF92DF92EF92FF9226
:1015D0000F931F93CF93DF931F92CDB7DEB78C018C
:1015E0006B01DC011696ED90FC90179718968D9183
:1015F0009C911997E816F90609F082C0EE0CFF1CC1
:10160000B1E4EB16B5E1FB0640F426E02E9DC001E7
:101610002F9D900D1124029602C08FEF9FEF0E9424
:10162000231EDC01ED92FD92FC0180E090E08E151E
:101630009F0549F015821482138212821782168246
:1016400001963696F4CFF801B383A283E480F58047
:10165000C8010E949307D7016D937D938D939C934E
:101660001397E12CF12C46E0942ED80116968D911B
:101670009C911797E816F906A8F5D8011496ED91F4
:10168000FC9115970280F381E02D2081822F90E05C
:1016900018966D917C911997660F771F0E944847A5
:1016A0002983989E9001999E300D1124F801828122
:1016B0009381BE016F5F7F4F820F931F0E940008CE
:1016C000D8011496AD90BC901597B501C8010E9441
:1016D000B007F5016083718382839383FFEFEF1A74
:1016E000FF0AC3CFC8010E94120AF80180859185C4
:1016F000880F991F9187808782819381918380834E
:10170000D6018C9190E0F801608571850E94484770
:1017100046E0489F9001499F300D1124E080F18000
:10172000E20EF31EB601D7018D919C910E943E04FA
:10173000892B61F4B601C7010E940008F801868177
:10174000978101969783868381E001C080E00F90A6
:10175000DF91CF911F910F91FF90EF90DF90CF908D
:10176000BF90AF909F900895EF92FF920F931F93B9
:10177000CF93DF938C017B01EA01BA0101960E94AD
:101780004B0481E090E00E94211EDC01CC93970184
:10179000220F331FD8011196ED91FC911297E20FA1
:1017A000F31FBC01808191810E94E10A81E090E0F9
:1017B0000E94211EFC01E082CC0FDD1FD801119692
:1017C0004D915C911297C40FD51FBC0188819981FE
:1017D000DF91CF911F910F91FF90EF900C94E10A50
:1017E0006F927F928F929F92AF92BF92CF92DF9231
:1017F000EF92FF920F931F93CF93DF93CDB7DEB796
:1018000065970FB6F894DEBF0FBECDBF3C018E8248
:101810009F82A886B986CA86DB86EC86FD860E87FF
:101820001F87288B398B4A8B5B8B6C8B7D8BEA8473
:10183000FB840C851D85CA88DB88DC0116968D919A
:101840009C91179718962D913C911997013011058D
:1018500061F4019617969C938E9316972150310947
:1018600019963C932E93189708C02F5F3F4FF301B2
:10187000318720870197978386836AE372E08BE341
:1018800095E00E94171CD30116966D917C911797D5
:101890004AE050E08BE395E00E94FF1C888999891B
:1018A000049789F4F801EE0FFF1FE60DF71D8485FC
:1018B00095858C199D099587848786859785C80E9F
:1018C000D91ED786C6868E2C87011127000F111FBF
:1018D000D3011196ED91FC911297E00FF11F8081D9
:1018E00091810E94930769837A838B839C83D301C0
:1018F0001196ED91FC911297E00FF11F0190F0818C
:10190000E02D29813A81808591852817390709F4CE
:1019100059C0EB81FC819080F301C480D580D60151
:101920001196ED91FC911297E00FF11FA080B1800C
:10193000A114B10459F19D82BE016B5F7F4FC501B7
:101940000E947007882311F19D82BE016B5F7F4F5B
:10195000C5010E947007882331F19D82BE016B5F33
:101960007F4FC5010E94B6098D82F6019181828167
:10197000E92FF82FE90DF11DE90DF11DBE016B5F97
:101980007F4F808191810E94B6090DC0EFA1F8A51B
:1019900080E1989EE00DF11D112444815581B7012D
:1019A000C6010E94B40BD3011196ED91FC911297E0
:1019B000E00FF11FBE016F5F7F4F808191810E9418
:1019C000B00791CF65960FB6F894DEBF0FBECDBFBE
:1019D000DF91CF911F910F91FF90EF90DF90CF900B
:1019E000BF90AF909F908F907F906F900895EF92EF
:1019F000FF920F932FEF49E06AE089E994E00E949B
:101A00004F3B8CE2E82EFF24F39405E029E348E302
:101A100064E085E894E00E9494410F91FF90EF907C
:101A200008952F923F924F925F926F927F928F9282
:101A30009F92AF92BF92CF92DF92EF92FF920F935D
:101A40001F93CF93DF93CDB7DEB7CC5BD1090FB631
:101A5000F894DEBF0FBECDBFC055DF4F998388839A
:101A6000C05BD040CE014C960E94F42421E04EE4AD
:101A700052E06DE777E0CE0101960E94A1238B81B1
:101A80009C819F8F8E8F8D819E81AF81B88588A329
:101A900099A3AAA3BBA389859A85AB85BC858CA392
:101AA0009DA3AEA3BFA38DE0FE013D96DE019896F7
:101AB00001900D928A95E1F78A8D9B8D9EAB8DAB3F
:101AC000CE014C960E946925182FCE0101960E94E6
:101AD0000725111113C066E572E08BE395E00E94C3
:101AE000341C8E01055A1F4F40E060E0C8010E947F
:101AF000B904C8010E947B0A380129C36AEC73E06B
:101B0000CE0183569F4F0E94A71DCE014C960E9486
:101B10008B24182FCE014C960E948B24123471F026
:101B2000CE014C960E94572565E672E08BE395E066
:101B30000E94341C8E01075B1F4FF6C18E010C55AD
:101B40001F4F86E0D8011D928A95E9F7612C712C10
:101B5000CE014C960E948B24803249F08A3039F0B5
:101B6000682FCE0183569F4F0E94021EF1CFCE01F7
:101B700083569F4F0E94161EF301EE0FFF1FE00FCA
:101B8000F11F71836083BFEF6B1A7B0A6AEC73E00D
:101B9000CE0183569F4F0E94BD1DE3E06E16710477
:101BA000B9F682E190E00E94211EC655DF4F99836D
:101BB0008883CA5AD040D8016D907C9011971496B2
:101BC0004C91662D0E94B904B1EF6B16B7E07B060D
:101BD00038F4C30154E0880F991F5A95E1F702C009
:101BE0008FEF9FEF0E94231EC055DF4FE881F981E0
:101BF000C05BD04091838083C455DF4F1982188227
:101C0000CC5AD0406FC10E940305282ECA54DF4F22
:101C10009883C65BD040CE014C960E940305382EB7
:101C2000C954DF4F9883C75BD040CE014C960E94C9
:101C300003052C01CE014C960E940305C255DF4FCF
:101C40008883CE5AD040C854DF4F9883C85BD040B9
:101C5000CE014C960E940305CE54DF4F8883C25BB1
:101C6000D040C754DF4F9883C95BD040CE014C961B
:101C70000E940305CD54DF4F8883C35BD040C65418
:101C8000DF4F9883CA5BD040CE014C960E9403057B
:101C9000CC54DF4F8883C45BD040C554DF4F98835A
:101CA000CB5BD040CE014C960E940305CB54DF4F56
:101CB0008883C55BD040C454DF4F9883CC5BD04051
:101CC000822CC357DF4F2882CD58D040CA54DF4FF3
:101CD000F881C65BD040C257DF4FF883CE58D04062
:101CE000A32CC157DF4F3882CF58D040C954DF4FA3
:101CF0008881C75BD040C057DF4F8883C059D04030
:101D0000C42CCF56DF4F59824882C159D040C255AA
:101D1000DF4FE880CE5AD040CD56DF4FE882C3591E
:101D2000D040C854DF4F9881C85BD040CC56DF4FBD
:101D30009883C459D040CE54DF4F0881C25BD04055
:101D4000CB56DF4F0883C559D040C754DF4FA88119
:101D5000C95BD040CA56DF4FA883C659D040CD5486
:101D6000DF4F2881C35BD040C956DF4F2883C75956
:101D7000D040C654DF4FB881CA5BD040C856DF4F51
:101D8000B883C859D040CC54DF4F4881C45BD040A1
:101D9000C756DF4F4883C959D040C554DF4FE8814B
:101DA000CB5BD040C656DF4FE883CA59D040CB54F6
:101DB000DF4F6881C55BD040C556DF4F6883CB5984
:101DC000D040C454DF4FF881CC5BD040C456DF4FC5
:101DD000F883CC59D040C257DF4F9880CE58D040BE
:101DE000B82ECE56DF4FD880C259D040F92E1A2FC8
:101DF0003B2F5E2F7F2FC655DF4F88819981CA5AAE
:101E0000D0400E949D0862E370E080E090E00E9474
:101E10006F1AC20144E0880F991F4A95E1F7C05537
:101E2000DF4FA881B981C05BD040ED91FC91E80FF4
:101E3000F91F2082CA54DF4FB881C65BD040B183FE
:101E40003282C954DF4F8881C75BD040838355827B
:101E50004482C255DF4F9881CE5AD0409683C854F1
:101E6000DF4FA881C85BD040A783CE54DF4FB88135
:101E7000C25BD040B087C754DF4F8881C95BD04078
:101E80008187CD54DF4F9881C35BD0409287C65481
:101E9000DF4FA881CA5BD040A387CC54DF4FB88105
:101EA000C45BD040B487C554DF4F8881CB5BD04042
:101EB0008587CB54DF4F9881C55BD0409687C4544B
:101EC000DF4FA881CC5BD040A787C455DF4FE881A6
:101ED000F981CC5AD0403196C455DF4FF983E8835D
:101EE000CC5AD040C455DF4F88819981CC5AD0401C
:101EF000861597051CF5CE014C960E948B24182F51
:101F0000CE014C960E948B24CE014C96143509F4D8
:101F10007ACE0E9457256BE772E08BE395E00E9432
:101F2000341C8E01095C1F4F40E060E0C8010E9434
:101F3000B904C8010E947B0A380104C1412C512C0C
:101F4000CA55DF4F88819981C65AD0404816590634
:101F50000CF0E4C0CE014C960E948B24182FCE01C9
:101F60004C960E948B24CE014C96103599F00E941D
:101F7000572563E972E08BE395E00E94341C612FE2
:101F80008BE395E00E94461C40E060E08E010F5F0D
:101F90001F4FCCCF0E94030524E0880F991F2A957C
:101FA000E1F7C055DF4FA881B981C05BD040ED910A
:101FB000FC91E80FF91F84819581C455DF4F998307
:101FC0008883CC5AD040A681B781C255DF4FB983F0
:101FD000A883CE5AD040CE014C960E94030534E02F
:101FE000880F991F3A95E1F7C055DF4FA881B98155
:101FF000C05BD040ED91FC91E80FF91FDE01A358C2
:10200000BF4F80E101900D928A95E1F7FE01E35800
:10201000FF4FDE01A359BF4F80E101900D928A95D9
:10202000E1F7CF57DF4F3880C158D040CE57DF4F50
:102030002880C258D040CD57DF4F68807980C35880
:10204000D040C32CE2963FAEE297E3962FAEE397E3
:10205000E62CE5967FAE6EAEE597AE968FACAE976A
:10206000AF969FACAF97E096AFACE097E196BFAC70
:10207000E197D22CE596FFACE597E6960FADE69793
:10208000E7961FADE797E8962FADE897E9963FAD45
:10209000E997EA964FADEA97EB965FADEB97EC9632
:1020A0006FADEC97ED967FADED97C655DF4F88810C
:1020B0009981CA5AD0400E949D08C255DF4FE881DD
:1020C000F981CE5AD040E615F705A1F4432D522DE3
:1020D000C455DF4F68817981CC5AD040C655DF4F57
:1020E000A881B981CA5AD04014968D919C911597B8
:1020F0000E94B40B432D522DC455DF4F6881798166
:10210000CC5AD040C655DF4F88819981CA5AD040F9
:102110000E94B40BBFEF4B1A5B0A12CF6BEA72E05E
:102120008BE395E00E94341CCE014C960E9457250B
:10213000C655DF4F6880CA5AD040C555DF4F7880FA
:10214000CB5AD040CE0183569F4F0E94391DCE01FD
:102150004C960E940725C301C454DF4F0FB6F89474
:10216000DEBF0FBECDBFDF91CF911F910F91FF90CA
:10217000EF90DF90CF90BF90AF909F908F907F9027
:102180006F905F904F903F902F9008958F929F9205
:10219000AF92BF92CF92DF92EF92FF920F931F9375
:1021A000CF93DF935C014B016B01A4E0CC0CDD1CF1
:1021B000AA95E1F7E0918204F0918304EC0DFD1DF6
:1021C0008091040290E0019728E131E0829FE001D4
:1021D000839FD00D929FD00D1124808591858130F1
:1021E000910539F194F4892B09F048C0428153815B
:1021F0004550510960817181655071096C1B7D0BDF
:10220000EE24EA94F7E0FF2E31C08230910501F10F
:102210000397A1F542815381455051096081718135
:10222000655071096C1B7D0B20EEE22E27E0F22E2B
:102230001DC04281538145505109608171816550B3
:1022400071096C1B7D0BEFE1EE2EE8EFFE2E0EC048
:1022500042815381455051096081718165507109F6
:102260006C1B7D0B30EEE32EFF24FA9403E210E0AA
:1022700023E230E089E994E00E94F83A81E0A81670
:10228000B10481F4E0918204F0918304EC0DFD1D12
:1022900042815381608171816C1B7D0B9FE1E92E2E
:1022A000F12C13C082E0A816B104B9F4E0918204C5
:1022B000F0918304EC0DFD1D428153816081718199
:1022C0006C1B7D0BE12C88EFF82E09E110E029E171
:1022D00030E089E994E00E94F83AB401C501DF9149
:1022E000CF911F910F91FF90EF90DF90CF90BF9013
:1022F000AF909F908F900C94CE05EF92FF920F932A
:102300001F93CF93DF93019719F0C0E0D8EF02C07D
:10231000CFE1D0E07E0106E210E026E230E049E2C3
:1023200050E069E171E089E994E00E94F83A0EE436
:1023300010E026E230E049E750E069E171E089E928
:1023400094E00E94F83ADF91CF911F910F91FF9096
:10235000EF900895EF92FF920F931F93CF93DF9327
:102360002091040230E02150310948E151E0249FDE
:10237000D001259FB00D349FB00D1124C09182046F
:10238000D0918304FB0124E0EE0FFF1F2A95E1F7B3
:10239000EC0FFD1F34E0880F991F3A95E1F7C80F45
:1023A000D91F02811381045F1F4F20813181245F77
:1023B0003F4F2A1B3B0B4A815B81445F5F4F688123
:1023C0007981645F7F4F6A1B7B0BEE24EA94FE2CBD
:1023D00089E994E00E941236DF91CF911F910F910D
:1023E000FF90EF9008955F926F927F928F929F92ED
:1023F000AF92BF92CF92DF92EF92FF920F931F9313
:10240000CF93DF9300D01F92CDB7DEB77C01CDB65E
:10241000DEB62091840430E08DB79EB7821B930B0B
:102420000FB6F8949EBF0FBE8DBF0DB71EB70F5FDE
:102430001F4FADB7BEB711961C92F8013196200F11
:10244000311FE217F30711F01192FBCF4801612C05
:10245000712C552453948091840490E06816790679
:102460000CF049C05301AA0CBB1CD701ED91FC91A3
:102470000180F281E02DEA0DFB1D808191810E9497
:10248000930769837A838B839C83D701ED91FC91B9
:102490000180F281E02DEA0DFB1D0190F081E02D1D
:1024A00029813A818085918528173907E9F0EB81E8
:1024B000FC81608170E0F801E60FF71F80818111D7
:1024C00003C0C3010E94AA11D701ED91FC910180C4
:1024D000F281E02DEA0DFB1DBE016F5F7F4F808111
:1024E00091810E94B007CDCFF40151924F01FFEFCF
:1024F0006F1A7F0AB0CF0FB6F894DEBE0FBECDBE06
:102500000F900F900F900F90DF91CF911F910F912F
:10251000FF90EF90DF90CF90BF90AF909F908F9003
:102520007F906F905F900895EF92FF920F931F93AB
:1025300062E089E994E00E94103AEE24EA94FE2CCD
:1025400008E210E028E230E040E050E068E171E0AD
:1025500089E994E00E94883644E050E06AE171E045
:1025600089E994E00E940A3A6CEB72E089E994E010
:102570000E94341C44E150E06AE171E089E994E092
:102580000E940A3A69E073E089E994E01F910F9193
:10259000FF90EF900C94341CEF92FF920F931F93D7
:1025A00062E089E994E00E94103AEE24EA94FE2C5D
:1025B00008E210E028E230E040E550E068E171E038
:1025C00089E994E00E94883644E550E06AE171E0D0
:1025D00089E994E00E940A3A60EC72E089E994E0AB
:1025E0000E94341C44E650E06AE171E089E994E01D
:1025F0000E940A3A64EC72E089E994E01F910F911D
:10260000FF90EF900C94341CEF92FF920F931F9366
:10261000EE24EA94FE2C08E210E028E230E048ECD8
:1026200050E068E171E089E994E00E9488360CEDA1
:1026300010E02EE331E04AEC50E06BE171E089E913
:1026400094E00E9412362DE331E04AEC50E06AE15A
:1026500071E089E994E00E9412362EE331E04EEEFB
:1026600050E06BE171E089E994E00E9412362DE3BD
:1026700031E04EEE50E06AE171E089E994E00E94B9
:1026800012361F910F91FF90EF900895EF92FF92F5
:102690000F931F93EE24EA94FE2C08E210E028E248
:1026A00030E048EC50E068E171E089E994E00E9494
:1026B00088360CED10E02AE131E04AEC50E06DE3A1
:1026C00071E089E994E00E9412362BE131E04AEC96
:1026D00050E06EE371E089E994E00E9412362AE14D
:1026E00031E04EEE50E06DE371E089E994E00E9444
:1026F00012362BE131E04EEE50E06EE371E089E9F5
:1027000094E00E9412361F910F91FF90EF90089570
:10271000EF92FF920F931F93CF93DF93EC01E12C85
:10272000F12C00EF10E028E230E040E050E068E1FA
:1027300071E089E994E00E94F83AEE24EA94FE2CD4
:1027400028E230E040E050E068E171E089E994E09F
:102750000E94883690910402913019F40E9404136B
:1027600004C0923011F40E9446130E9494120E94F9
:10277000CC12CE01DF91CF911F910F91FF90EF907E
:102780000C947D11EF92FF920F931F93CF93DF93E1
:10279000EC018B017A010E94951A40E050E0BA01E9
:1027A00089E994E00E94103C63E089E994E00E948A
:1027B000063E60E070E089E994E00E94F43540E86C
:1027C00055E260E070E08BE395E00E94A52040E8D0
:1027D00055E260E070E085ED94E00E94A52068EC91
:1027E00072E08BE395E00E94341C66E08DE797E091
:1027F0000E948E2281110DC06EEC72E08BE395E099
:102800000E94341C65ED72E08BE395E00E94341C5D
:10281000FFCF82E894E00E94110D99838883FC0128
:10282000808180938404F0E18F9FC00111240E9475
:10283000231EF8019183808320E030E040E050E0E7
:1028400070E160918404E62FF0E04E175F079CF47E
:10285000DC01A20FB31FE0918204F0918304E20F28
:10286000F31F672F01900D926A95E1F74F5F5F4F5D
:10287000205F3F4FE6CFC8010E94A806CE010E940C
:10288000F31100E010E0C0E0D0E02091840430E0DB
:10289000C217D3077CF4E0918204F0918304E00F27
:1028A000F11FBE01868197810E94C6102196005FAC
:1028B0001F4FEBCFC701DF91CF911F910F91FF9079
:1028C000EF900C9488136F927F928F929F92AF92A9
:1028D000BF92CF92DF92EF92FF920F931F93CF930D
:1028E000DF93EC018B017A01390180E00E94F71A35
:1028F0000E94FF2184E0000F111F8A95E1F794E008
:10290000EE0CFF1C9A95E1F7E0918204F0918304AC
:10291000E00FF11F8685978502970CF474C024E6BA
:1029200030E040E050E061E070E080E090E00E9444
:102930002B226B014AE050E08BE395E00E94FF1CE4
:102940008091820490918304FC0122E3C216D10499
:102950004CF4EE0DFF1D2685378545E0C416D104E5
:1029600064F008C0E00FF11F26853785A1E6CA167E
:10297000D1041CF42150310902C02250310937879B
:102980002687FC01EE0DFF1D26853785DC01A00F93
:10299000B11F1216130654F11E962D913C911F97EC
:1029A000215031093787268721E030E01F963C937C
:1029B0002E931E97D783C6839F938F938080918099
:1029C000A280B380C480D580E680F7800085118521
:1029D000228533854485558566857785F301808119
:1029E00091810E94F00B0F900F900DC01E968D915B
:1029F0009C911F9702970CF087CF81E090E01F9683
:102A00009C938E931E97D301ED91FC9186819781C3
:102A1000892BB9F180859185892B61F1E12CF12C0D
:102A200000E010E08091840490E0081719078CF40E
:102A3000E0918204F0918304EE0DFF1DB8018681C0
:102A400097810E94C6100F5F1F4FB0E1EB0EF11C83
:102A5000E9CFCE01DF91CF911F910F91FF90EF90C1
:102A6000DF90CF90BF90AF909F908F907F906F90AE
:102A70000C9488136FE170E089E994E00E94F435CA
:102A8000FFCF60E078EF89E994E00E94F435FFCF52
:102A9000EF92FF920F931F93CF93DF93EC017B0193
:102AA00090910402923011F481E003C0913049F416
:102AB00082E08093040260E070E089E994E00E9483
:102AC000F435CE010E94F31100E010E0C0E0D0E048
:102AD0002091840430E0C217D3077CF4E091820493
:102AE000F0918304E00FF11FBE01868197810E945F
:102AF000C6102196005F1F4FEBCFC701DF91CF912A
:102B00001F910F91FF90EF900C9488132F923F929A
:102B10004F925F926F927F928F929F92AF92BF92ED
:102B2000CF92DF92EF92FF920F931F93CF93DF9399
:102B300000D01F92CDB7DEB76C015B014A01DA010C
:102B4000ED91FC918081D6011696AA0FBB1FAE0FA6
:102B5000BF1F2D913C91280F311DE380F12C609017
:102B600082047090830440E050E04E155F058CF5C0
:102B7000BA01660F771FA485B585A60FB71F0D9103
:102B80001C9180E090E08017910704F5A285B38541
:102B9000A60FB71F0D90BC91A02D0D90BC91A02D3C
:102BA000A80FB91FBC911301A0E1BA9F200C311CE2
:102BB0001124D10116964D905C9017974C145D042A
:102BC00019F0201B310B02C00196DDCF4F5F5F4F24
:102BD000CCCF3901B4E06B0E711C4AE050E0B30178
:102BE0008BE395E00E94FF1C61E089E994E00E947C
:102BF000103A6FEF7FEF89E994E00E94163A4CE7B4
:102C000050E060E271E089E994E00E940A3A61E0F4
:102C100073E089E994E00E94341C62E089E994E061
:102C20000E94103A4CE850E066E271E089E994E0D5
:102C30000E940A3A21E0C216D10421F0412C68EF2B
:102C4000562E03C05FE1452E512C4AE050E0B301FF
:102C500089E994E00E94F81C161417040CF0ACC02B
:102C6000BE016F5F7F4FCE0103960E944805098128
:102C70001A812B813C814091840450E060E070E037
:102C8000C5010E9422072B813C818F3FAFEF9A073D
:102C9000D1F52931314024F389819A81893C91050C
:102CA000FCF2B601C4010E94481561E089E994E094
:102CB0000E94103A6FEF7FEF89E994E00E94163A84
:102CC0004CE750E060E271E089E994E00E940A3A42
:102CD00061E073E089E994E00E94341C62E089E9D4
:102CE00094E00E94103A4CE850E066E271E089E915
:102CF00094E00E940A3A4AE050E0B30189E994E086
:102D00000E94F81CADCF2931B1E03B070CF04DC05B
:102D1000E0918204F09183049C0144E0220F331F70
:102D20004A95E1F7E20FF31F268137812C153D0507
:102D300009F092CF268537852F5F3F4F378726874B
:102D400021E0621A7108BC01C6010E94C61072011E
:102D500008E210E026E230E04CE850E069E171E082
:102D600089E994E00E94F83A4CE850E066E271E0AC
:102D700089E994E00E940A3A62E089E994E00E94BD
:102D8000103A6FEF7FEF89E994E00E94163A4AE02B
:102D900050E0B30189E994E00E94F81C68EC70E00F
:102DA00080E090E00E946F1A57CF49815A81493CD8
:102DB00051050CF06ECFACCFC6010E9488130F9066
:102DC0000F900F900F90DF91CF911F910F91FF9077
:102DD000EF90DF90CF90BF90AF909F908F907F90BB
:102DE0006F905F904F903F902F9008952F923F9259
:102DF0004F925F926F927F928F929F92AF92BF920B
:102E0000CF92DF92EF92FF920F931F93CF93DF93B6
:102E1000CDB7DEB729970FB6F894DEBF0FBECDBF92
:102E20006C017F836E833A0138E1232E332433947F
:102E3000BE016F5F7F4FCE0103960E9448058B81D4
:102E40009C81893191400CF491C089819A818832AA
:102E500091050CF04FC066E073E08BE395E00E94B3
:102E6000341C8091040290E00197829D2001839D93
:102E7000500C929D500C1124450124E0880C991CA3
:102E80002A95E1F7E0918204F0918304E80DF91DA1
:102E900042815381608171816419750931E0C316E3
:102EA000D10421F49FE1E92EF12C03C0E12C88EF3D
:102EB000F82E09E110E029E130E089E994E00E9470
:102EC0008836E0918204F0918304E80DF91D428177
:102ED00053814F5F5F4F608171816F5F7F4F6419D6
:102EE000750907E110E027E130E089E994E00E94EC
:102EF00088369ECF9C01215531092732310528F5AE
:102F00006DE073E08BE395E00E94341C6AEF70E0A3
:102F100080E090E00E946F1A29960FB6F894DEBF09
:102F20000FBECDBFDF91CF911F910F91FF90EF901A
:102F3000DF90CF90BF90AF909F908F907F906F90D9
:102F40005F904F903F902F900895893C91055CF0E1
:102F500064E273E08BE395E00E94341CB601C30188
:102F60000E94481565CF6EE273E02EC068E373E0FF
:102F70008BE395E00E94341C09811A812B813C81EE
:102F80004091840450E060E070E08E819F810E9457
:102F900022075C018FEFA816B80619F469E473E004
:102FA00013C0450104E0880C991C0A95E1F7E091F3
:102FB0008204F0918304E80DF91D868197818C15B8
:102FC0009D0539F066E573E08BE395E00E94341CC3
:102FD0002FCF68EC70E080E090E00E946F1A62E70B
:102FE00073E08BE395E00E94171C4AE050E0B501C6
:102FF0008BE395E00E94FF1C8091040290E0019712
:10300000829D2001839D500C929D500C1124E091D3
:103010008204F0918304E80DF91D4281538160819F
:10302000718164197509EE24EA94FE2C09E110E01F
:1030300029E130E089E994E00E948836E091820439
:10304000F0918304E80DF91D428153814F5F5F4F7A
:10305000608171816F5F7F4F6419750907E110E02E
:1030600027E130E089E994E00E948836C50199277C
:10307000DC01AA0FBB1FB987A887BE016F5F7F4F16
:10308000CE0103960E9448052B813C8109811A815B
:103090002931B1E03B070CF4F9C0083211050CF0FE
:1030A00049C061E873E08BE395E00E94341C809195
:1030B000040290E00197829D2001839D500C929D17
:1030C000500C1124E0918204F0918304E80DF91D65
:1030D00042815381608171816419750921E0C216B2
:1030E000D10421F4EFE1EE2EF12C03C0E12C38EFF6
:1030F000F32E09E110E029E130E089E994E00E9433
:103100008836E0918204F0918304E80DF91D428134
:1031100053814F5F5F4F608171816F5F7F4F641993
:10312000750907E110E027E130E089E994E00E94A9
:103130008836F8C0C80181559109879708F4E0CE18
:10314000093C11050CF49FC06AE873E08BE395E03D
:103150000E94341CB601C3010E94481580910402EC
:10316000813089F5E0918204F0918304E80DF91D26
:1031700060817181693131E073070CF07ECF42814B
:103180005381EE24EA94FE2C09E110E029E130E0BD
:1031900089E994E00E948836E0918204F0918304EA
:1031A000E80DF91D428153814F5F5F4F608171814E
:1031B0006F5F7F4F07E110E027E130E089E994E09D
:1031C0000E9488365ACF823009F057CFE0918204AE
:1031D000F0918304E80DF91D80819181883191403F
:1031E0000CF44BCF66E973E08BE395E00E94341C4E
:1031F0008091040290E00197829D2001839D500CF4
:10320000929D500C1124E0918204F0918304E80D0A
:10321000F91D428153816081718164197509EE2421
:10322000EA94FE2C09E110E029E130E089E994E01C
:103230000E948836E0918204F0918304E80DF91D24
:10324000428153814F5F5F4F608171816F5F7F4F1C
:103250006419750907E110E027E130E089E994E09D
:103260000E948836E0918204F0918304E80DF91DF4
:1032700060817181641975094AE050E08BE395E043
:103280000E94231DFACE6BE973E053C04091840481
:1032900050E060E070E08E819F810E9422072C0147
:1032A0008F3FBFEF9B0719F467EA73E042C0D30179
:1032B000ED91FC910180F281E02D8D832885398587
:1032C000E20FF31FBE016B5F7F4F808191810E94EF
:1032D0007007811103C06EED73E02BC0820184E0A2
:1032E000000F111F8A95E1F7E0918204F0918304A9
:1032F000E00FF11F868197818C159D05F9F06CEB2D
:1033000073E08BE395E00E94171C4AE050E0B201A5
:103310008BE395E00E94FF1C9301A201B501C60159
:103320000E94631468EC70E080E090E00E946F1AE5
:103330007FCD8BE395E00E94341C9FCE6BEC73E055
:103340008BE395E00E94341C809182049091830469
:10335000FC01E80DF91D268537852230310514F36F
:103360002150310937872687FC01E00FF11F868540
:103370009785019697878687B501C6010E94C6107A
:10338000B201C6010E94C610CDCFCF93DF9300D00B
:103390001F92CDB7DEB78C01AC01BE016D5F7F4FD0
:1033A000CE0101960E94C2136B817C81AE014F5FFA
:1033B0005F4FC8010E94F6160130110519F001E0B7
:1033C00010E002C002E010E0C8010E9488136B8187
:1033D0007C81AE014F5F5F4FC8010E948615E4CF2C
:1033E00081E090E00E94C5191F920F920FB60F92D4
:1033F00011242F933F938F939F93AF93BF9380910B
:10340000CD049091CE04A091CF04B091D00430911E
:10341000CC0423E0230F2D3720F40196A11DB11D0C
:1034200005C026E8230F0296A11DB11D2093CC04F0
:103430008093CD049093CE04A093CF04B093D00496
:103440008091D1049091D204A091D304B091D4047E
:103450000196A11DB11D8093D1049093D204A09335
:10346000D304B093D404BF91AF919F918F913F91BA
:103470002F910F900FBE0F901F9018952FB7F894B3
:103480006091CD047091CE048091CF049091D004CE
:103490002FBF08953FB7F8948091D1049091D20442
:1034A000A091D304B091D40426B5A89B05C02F3FAA
:1034B00019F00196A11DB11D3FBFBA2FA92F982F5A
:1034C0008827820F911DA11DB11DBC01CD0142E0D5
:1034D000660F771F881F991F4A95D1F70895CF92DD
:1034E000DF92EF92FF92CF93DF936B017C010E94FA
:1034F0004A1AEB01C114D104E104F10479F00E94ED
:103500004A1A6C1B7D0B683E7340A0F381E0C81A19
:10351000D108E108F108C851DC4FECCFDF91CF9121
:10352000FF90EF90DF90CF900895789484B58260FB
:1035300084BD84B5816084BD85B5826085BD85B557
:10354000816085BDEEE6F0E0808181608083E1E806
:10355000F0E010828081826080838081816080833E
:10356000E0E8F0E0808181608083E1EBF0E0808141
:1035700084608083E0EBF0E0808181608083E1E91A
:10358000F0E0808182608083808181608083E0E9D7
:10359000F0E0808181608083E1EAF0E080818260F8
:1035A0008083808181608083E0EAF0E080818160B7
:1035B0008083E1E2F1E080818260808380818160AC
:1035C0008083E0E2F1E0808181608083EAE7F0E0DF
:1035D000808184608083808182608083808181603B
:1035E00080838081806880831092C1000895863333
:1035F00008F0865390917B00282F2870977F922B9C
:1036000090937B0087702091050290E4299F9001A0
:103610001124822B80937C0080917A0080648093B7
:103620007A0080917A0086FDFCCF8091780020910D
:10363000790090E0922B089590E0FC013197E13100
:10364000F10508F04AC08827EE58FF4F8F4F0C94C1
:10365000B147809180008F7703C0809180008F7D7B
:1036600080938000089584B58F7702C084B58F7DE4
:1036700084BD08958091B0008F7703C08091B00021
:103680008F7D8093B0000895809190008F7707C060
:10369000809190008F7D03C080919000877F809300
:1036A000900008958091A0008F7707C08091A000BE
:1036B0008F7D03C08091A000877F8093A000089534
:1036C000809120018F7707C0809120018F7D03C0FA
:1036D00080912001877F809320010895CF93DF930D
:1036E00090E0FC01E05CFD4F2491FC01EA57FD4FA6
:1036F0008491882361F190E0880F991FFC01EA51C1
:10370000FD4FC591D491FC01E453FD4FA591B491B7
:10371000611109C09FB7F89488812095822388831E
:10372000EC912E230BC0623061F49FB7F89438817E
:10373000822F809583238883EC912E2B2C939FBF1F
:1037400006C08FB7F894E8812E2B28838FBFDF91B6
:10375000CF9108951F93CF93DF93282F30E0F90185
:10376000E650FE4F8491F901E05CFD4FD491F901E0
:10377000EA57FD4FC491CC23C9F0162F81110E9446
:103780001C1BEC2FF0E0EE0FFF1FE453FD4FA59143
:10379000B4918FB7F894111105C09C91ED2FE0956D
:1037A000E92302C0EC91ED2BEC938FBFDF91CF9119
:1037B0001F910895CF92DF92EF92FF920F931F9384
:1037C000CF93DF936C01EB017B01E40EF51E00E06B
:1037D00010E0CE15DF0561F06991D601ED91FC9105
:1037E0000190F081E02DC6011995080F191FF1CF46
:1037F000C801DF91CF911F910F91FF90EF90DF9063
:10380000CF9008956115710579F0FB0101900020BA
:10381000E9F73197AF01461B570BDC01ED91FC91A5
:103820000280F381E02D199480E090E008950C94DB
:10383000021CDC01ED91FC910190F081E02D1994C6
:103840000F931F93CF93DF93EC016DE00E94191C3F
:103850008C016AE0CE010E94191C800F911FDF913C
:10386000CF911F910F9108950F931F93CF93DF93E3
:10387000EC010E94021C8C01CE010E94201C800FD2
:10388000911FDF91CF911F910F9108950F931F9377
:10389000CF93DF93EC010E94191C8C01CE010E9492
:1038A000201C800F911FDF91CF911F910F910895E0
:1038B0008F929F92AF92BF92CF92DF92EF92FF9240
:1038C0000F931F93CF93DF93CDB7DEB7A1970FB6BA
:1038D000F894DEBF0FBECDBF6C01142FE52FCB01D6
:1038E000022F19A2223008F40AE07E0121E2E20E42
:1038F000F11C802E912CA12CB12C612F7E2FA501C3
:1039000094010E947047029F1019112481E0E81A67
:10391000F1081A3014F4105D01C0195CF70110832E
:10392000122FE32FCA01232B242B252B31F7B701AC
:10393000C6010E94021CA1960FB6F894DEBF0FBE0E
:10394000CDBFDF91CF911F910F91FF90EF90DF904E
:10395000CF90BF90AF909F908F900895CF92DF92BD
:10396000EF92FF920F931F93CF93DF93EC016A01C5
:103970007B012115310579F4E881F9810190F0810D
:10398000E02D642FDF91CF911F910F91FF90EF9069
:10399000DF90CF9019942A303105E9F477FF1AC0EF
:1039A0006DE20E94191C8C0144275527BA014C195D
:1039B0005D096E097F092AE0CE010E94581C800F24
:1039C000911FDF91CF911F910F91FF90EF90DF90AA
:1039D000CF9008952AE0B701A601CE01DF91CF91E3
:1039E0001F910F91FF90EF90DF90CF900C94581C97
:1039F0009A01AB01770F660B770B0C94AE1C0F93FB
:103A00001F93CF93DF93EC019A01AB01770F660B05
:103A1000770B0E94AE1C8C01CE010E94201C800FEF
:103A2000911FDF91CF911F910F91089521153105BD
:103A300041F4DC01ED91FC910190F081E02D642FC7
:103A400019940C94581C0F931F93CF93DF93EC01A0
:103A50009A01AB0160E070E00E94161D8C01CE015E
:103A60000E94201C800F911FDF91CF911F910F9119
:103A70000895FC01808191810C948D43CF93DF9355
:103A8000EC0188819981009711F00E948D43198281
:103A900018821D821C821B821A82DF91CF910895A9
:103AA0000F931F93CF93DF93EC018B016F5F7F4FD9
:103AB000888199810E940F42009731F09983888311
:103AC0001B830A8381E001C080E0DF91CF911F91C9
:103AD0000F910895CF93DF93EC0188819981892B11
:103AE00029F08A819B818617970760F4CE010E9496
:103AF000501D882341F08C819D81892B19F4E88128
:103B0000F981108281E0DF91CF910895EF92FF92C9
:103B10000F931F93CF93DF93EC017B018A01BA01CE
:103B20000E946A1D811104C0CE010E943E1D07C083
:103B30001D830C83B701888199810E94FD44CE01C9
:103B4000DF91CF911F910F91FF90EF900895FC01AD
:103B500011821082138212821582148216826115DC
:103B6000710551F0FB0101900020E9F73197AF0199
:103B7000461B570B0C94861D0895CF93DF93EC01E1
:103B80006115710559F0FB0101900020E9F73197AB
:103B9000AF01461B570B0E94861D02C00E943E1DAE
:103BA000CE01DF91CF910895EF92FF920F931F9373
:103BB000CF93DF93FC01248135816115710511F4E8
:103BC00080E019C041155105A9F07B01EC018A0183
:103BD000020F131FB8010E946A1D882389F32881F0
:103BE00039818C819D81B701820F931F0E94FD4412
:103BF0001D830C8381E0DF91CF911F910F91FF9086
:103C0000EF900895CF93DF931F921F92CDB7DEB749
:103C100069831A8241E050E0BE016F5F7F4F0E94CE
:103C2000D41D0F900F90DF91CF910895FC018081FA
:103C30009181009711F00C94B24460E070E0CB01E8
:103C400008950C94F8420C94F8420C948D430C9413
:103C50008D430895FC0124853585F901E05CFF4F13
:103C600080819181329620813181821B930B8F73E9
:103C700099270895DC011C96ED91FC911D97DF01B9
:103C8000A05CBF4F2D913C91119712968D919C9104
:103C900011972817390739F08D919C91E80FF91F7A
:103CA000808190E008958FEF9FEF0895FC01A48537
:103CB000B585FD01E05CFF4F208131813296808126
:103CC00091812817390779F080819181A80FB91F58
:103CD0008C91208131812F5F3F4F2F7333273183A8
:103CE000208390E008958FEF9FEF0895FC0181A15C
:103CF000882329F0A489B5898C9186FFFBCF11A276
:103D000008950F931F93CF93DF93FC01A685B7858A
:103D10008D01005C1F4FE8018881998101968F73A6
:103D20009927AD014E5B5F4FEA01288139818217E7
:103D30009307D1F3E80128813981A20FB31F6C9357
:103D4000A685B785A05CBF4F11969C938E93A689DC
:103D5000B7892C9181E090E0078C02C0880F991FF1
:103D60000A94E2F7822B8C9381E081A30488F58981
:103D7000E02D80818064808381E090E0DF91CF91AD
:103D80001F910F910895FB01E05CFF4F208131816D
:103D90002F5F3F4F2F733327DB01AE5BBF4F4D913A
:103DA0005C912417350741F040815181DB01A40F5C
:103DB000B51F8C933183208308951F920F920FB605
:103DC0000F9211240BB60F922F933F934F935F9353
:103DD0006F937F938F939F93AF93BF93EF93FF93D3
:103DE0008091C00082FD07C08091C60069E377E042
:103DF0000E94C31E02C08091C600FF91EF91BF9147
:103E0000AF919F918F917F916F915F914F913F9172
:103E10002F910F900BBE0F900FBE0F901F90189513
:103E20001F920F920FB60F9211240BB60F922F9381
:103E30003F934F935F936F937F938F939F93AF9332
:103E4000BF93EF93FF938091C80082FD07C08091DC
:103E5000CE0061EB76E00E94C31E02C08091CE00CE
:103E6000FF91EF91BF91AF919F918F917F916F9152
:103E70005F914F913F912F910F900BBE0F900FBE0E
:103E80000F901F9018951F920F920FB60F9211244A
:103E90000BB60F922F933F934F935F936F937F9344
:103EA0008F939F93AF93BF93EF93FF938091D00035
:103EB00082FD07C08091D60069E276E00E94C31EB1
:103EC00002C08091D600FF91EF91BF91AF919F9179
:103ED0008F917F916F915F914F913F912F910F90B3
:103EE0000BBE0F900FBE0F901F9018951F920F9250
:103EF0000FB60F9211240BB60F922F933F934F934F
:103F00005F936F937F938F939F93AF93BF93EF9341
:103F1000FF938091300182FD07C08091360161EAF4
:103F200075E00E94C31E02C080913601FF91EF919F
:103F3000BF91AF919F918F917F916F915F914F91C1
:103F40003F912F910F900BBE0F900FBE0F901F90BF
:103F500018951F920F920FB60F9211240BB60F9265
:103F60002F933F938F939F93EF93FF932091350768
:103F70003091360780913707909138072817390715
:103F800031F48091C1008F7D8093C10014C0E09115
:103F90003707F0913807EB50F94F208180913707B0
:103FA0009091380701968F739927909338078093E3
:103FB00037072093C600FF91EF919F918F913F911A
:103FC0002F910F900BBE0F900FBE0F901F90189562
:103FD0001F920F920FB60F9211240BB60F922F93D0
:103FE0003F938F939F93EF93FF932091AD06309172
:103FF000AE068091AF069091B0062817390731F4CC
:104000008091C9008F7D8093C90014C0E091AF06F4
:10401000F091B006E359F94F20818091AF0690915D
:10402000B00601968F7399279093B0068093AF06E0
:104030002093CE00FF91EF919F918F913F912F910F
:104040000F900BBE0F900FBE0F901F9018951F92F0
:104050000F920FB60F9211240BB60F922F933F932E
:104060008F939F93EF93FF9320912506309126061F
:1040700080912706909128062817390731F48091FE
:10408000D1008F7D8093D10014C0E0912706F0917C
:104090002806EB51FA4F208180912706909128063F
:1040A00001968F7399279093280680932706209373
:1040B000D600FF91EF919F918F913F912F910F909B
:1040C0000BBE0F900FBE0F901F9018951F920F926E
:1040D0000FB60F9211240BB60F922F933F938F932D
:1040E0009F93EF93FF9320919D0530919E058091C2
:1040F0009F059091A0052817390731F4809131016F
:104100008F7D8093310114C0E0919F05F091A0054F
:10411000E35AFA4F208180919F059091A005019666
:104120008F7399279093A00580939F052093360164
:10413000FF91EF919F918F913F912F910F900BBE27
:104140000F900FBE0F901F901895CF92DF92EF92B5
:10415000FF920F931F93CF93DF93EC016A017B01D2
:104160004115514E6105710509F1EC89FD8981E028
:1041700090E008A002C0880F991F0A94E2F780839C
:1041800060E079E08DE390E0A70196010E9470471E
:1041900089019A01015011092109310936952795A4
:1041A00017950795980101151041A8F0EC89FD8934
:1041B000108260E874E88EE190E0A70196010E9409
:1041C0007047DA01C9010197A109B109B695A79510
:1041D000979587959C01E889F9893083EA89FB895D
:1041E000208319A2EE89FF89408181E090E09C0143
:1041F0000C8C02C0220F331F0A94E2F7242B208379
:10420000EE89FF8940819C010D8C02C0220F331F73
:104210000A94E2F7242B2083EE89FF8940819C01D8
:104220000E8C02C0220F331F0A94E2F7242B208346
:10423000EE89FF8920810F8C02C0880F991F0A9494
:10424000E2F7809582238083DF91CF911F910F91B8
:10425000FF90EF90DF90CF900895CF92DF92EF9292
:10426000FF92EBE3F5E01382128288EEC82E83E022
:10427000D82EE12CF12CC482D582E682F7826CE044
:1042800074E07183608389E397E09587848785EF85
:1042900096E09787868785EC90E0918B808B84EC05
:1042A00090E0938B828B80EC90E0958B848B81ECFB
:1042B00090E0978B868B82EC90E0918F808F86ECDC
:1042C00090E0938F828F44E0448F33E0358F27E076
:1042D000268F95E0978F81E080A3E9E1F5E01382D6
:1042E0001282C482D582E682F78271836083A1EB59
:1042F000B6E0B587A487ADE6B6E0B787A687ADEC94
:10430000B0E0B18BA08BACECB0E0B38BA28BA8EC8F
:10431000B0E0B58BA48BA9ECB0E0B78BA68BAAEC70
:10432000B0E0B18FA08FAEECB0E0B38FA28F448F1E
:10433000358F268F978F80A3E7EFF4E013821282E8
:10434000C482D582E682F78271836083A9E2B6E0F7
:10435000B587A487A5EEB5E0B787A687A5EDB0E041
:10436000B18BA08BA4EDB0E0B38BA28BA0EDB0E03D
:10437000B58BA48BA1EDB0E0B78BA68BA2EDB0E01E
:10438000B18FA08FA6EDB0E0B38FA28F448F358F91
:10439000268F978F80A3E5EDF4E013821282C4820A
:1043A000D582E682F7827183608361EA75E0758762
:1043B00064876DE575E07787668765E371E0718BEB
:1043C000608B64E371E0738B628B60E371E0758BEB
:1043D000648B61E371E0778B668B62E371E0718FD0
:1043E000608F66E371E0738F628F448F358F268F05
:1043F000978F80A3FF90EF90DF90CF900895009764
:1044000029F0BC0180E090E00C94A9440895CF937A
:10441000DF9300D01F92CDB7DEB76115710581051E
:10442000910579F09B01AC0169833A834B835C83EE
:104430000E94A54429813A814B815C810E94924768
:1044400003C060E070E0CB010F900F900F900F90D1
:10445000DF91CF910895CF92DF92EF92FF920F9369
:104460001F93621773078407950784F489019A01E3
:104470006B017C01C901B8016C197D098E099F0986
:104480000E9407226C0D7D1D8E1D9F1D1F910F9197
:10449000FF90EF90DF90CF9008954F925F926F92D0
:1044A0007F92AF92BF92CF92DF92EF92FF920F93E3
:1044B0001F93CF93DF93CDB7DEB729013A019B015C
:1044C000AC0124193509460957098A899B89AC89A9
:1044D000BD89BC01CD016A197B098C099D090E9427
:1044E0003847A801970124193509460957090E9440
:1044F0009247CA01B9016A0D7B1D8C1D9D1DDF917C
:10450000CF911F910F91FF90EF90DF90CF90BF90D0
:10451000AF907F906F905F904F9008950F931F938F
:10452000CF93DF93EC01462F61E00E94732D882327
:1045300091F08E01045F1F4F41E0BE01C8010E944F
:104540002933882351F0B801CE018A960E944F2664
:1045500091E081110AC090E008C040E0BE01C801AE
:104560000E9429338823B9F3EECF892FDF91CF91B1
:104570001F910F910895FC01DB0112968D919C9182
:104580001397938382838EE294E0918380831496C1
:104590008C911497848315968C9115978583169624
:1045A0004D915D916D917C911997468357836087FA
:1045B00071871A964D915D916D917C911D974287FF
:1045C0005387648775871E964D915D916D917C919F
:1045D000519746875787608B718B52968C91529773
:1045E000828B53964D915D916D917C915697438B43
:1045F000548B658B768B57964D915D916D917C9127
:104600005A97478B508F618F728F5B968D919C91DB
:104610005C97948F838F08954F925F926F927F92F1
:104620008F929F92AF92BF92CF92DF92EF92FF92C2
:104630000F931F93CF93DF93CDB7DEB7C754D10944
:104640000FB6F894DEBF0FBECDBF6C015A01490111
:10465000665D7F4F7E018EE1E80EF11CC7010E946E
:10466000BB221C821B828EE294E09A8389831E8285
:104670008501FE0131963F0127016FE270E0C8011C
:104680000E94F2440097D9F1F80120812F3219F4E9
:104690000F5F1F4FF2CF801B8D3008F08CE0E82EAB
:1046A000F12CA701B801CE01CB960E940445EBE3A3
:1046B000F0E0EC0FFD1FEE0DFF1D1082C3010E9404
:1046C000CB2821E0AE01455C5F4FB201C3010E94DF
:1046D000FF29811109C0F601138212828EE294E053
:1046E00091838083158214C00E0D1F1DC2010E948C
:1046F000CB28942D852D2301692E782EBECF0A1943
:104700001B09F40111830083B201C6010E94BB2280
:10471000C601C95BDF4F0FB6F894DEBF0FBECDBF39
:10472000DF91CF911F910F91FF90EF90DF90CF908D
:10473000BF90AF909F908F907F906F905F904F90C1
:104740000895CF92DF92FF920F931F93CF93DF9341
:10475000CDB7DEB7C955D1090FB6F894DEBF0FBE8D
:10476000CDBF6C018A01F22E9E01285A3F4FCE0127
:10477000CB960E940C236A968EAD9FAD6A97080F68
:10478000191FF801808181110AC0BE01655C7F4F4D
:10479000CE0101960E94BB2248E154E03EC019A21E
:1047A00018A28EE294E09F8F8E8F1BA221968FAD70
:1047B0002197811104C0C6010E94F42434C08250A4
:1047C0002F2DA801823048F467EA77E0CE014E969B
:1047D0000E94FF2981110EC0EECFBE01655C7F4FA4
:1047E000CE014E960E94FF29882329F3CE01CB9655
:1047F0000E94CB289F2D967041F049A95AA96BA918
:104800007CA9CE014E960E94EE27BE01625E7F4FCC
:10481000CE0101960E94BB22A801BE016F5F7F4FAF
:10482000C6010E94BF24C601C75ADF4F0FB6F894D5
:10483000DEBF0FBECDBFDF91CF911F910F91FF90D3
:10484000DF90CF900895EDE7F7E01582168211868C
:10485000138682E090E0A0E0B0E084879587A68789
:10486000B78713A215A614A68EE294E093A782A799
:1048700017A60895CF93DF931F92CDB7DEB7698354
:10488000DC01ED91FC910280F381E02D41E050E0EC
:10489000BE016F5F7F4F19950F90DF91CF91089503
:1048A000CF93DF93EC01898D9A8D009739F481E0E5
:1048B00090E09B838A8380E090E00BC0FC01138230
:1048C00012820E94ED2AE98DFA8D22813381232BF9
:1048D00071F7DF91CF910895FC01818D928D009742
:1048E00011F00C9484280895CF93DF931F92CDB7D5
:1048F000DEB741E050E0BE016F5F7F4F0E94A0260F
:10490000019719F4898190E002C08FEF9FEF0F901B
:10491000DF91CF910895FC01818D928D009711F068
:104920000C9474248FEF9FEF08950F931F93CF93F0
:10493000DF93FC01818D928D0097B9F0EF010E9409
:1049400074248C010F3F8FEF180791F0898D9A8D99
:10495000FC01428553856485758541505109610983
:1049600071090E94EE27C80105C080E090E002C0F6
:104970008FEF9FEFDF91CF911F910F910895EF92ED
:10498000FF920F931F93CF93DF93EC017B018A017A
:104990001B821A8288EE93E0A0E0B0E08C839D83B6
:1049A000AE83BF838EE194E0998388838DE190E0AC
:1049B0000E94F8429A8F898F009779F02DE1F701D4
:1049C000DC0101900D922A95E1F74CE050E0B8012E
:1049D000CE010C960E940445188EDF91CF911F9155
:1049E0000F91FF90EF900895FC011382128288EEE0
:1049F00093E0A0E0B0E084839583A683B7838EE143
:104A000094E091838083128E118E14860895089508
:104A1000DC015996ED91FC915A97309729F0628507
:104A200073858485958508956FEF7FEFCB01089599
:104A3000DC015996ED91FC915A97309729F06389E2
:104A4000748985899689089560E070E0CB010895A6
:104A5000CF92DF92EF92FF92CF93DF93FC01218DF3
:104A6000328D232BD9F0EC010E9418256B017C01BB
:104A7000CE010E940825A7019601261B370B480B83
:104A8000590BDA01C901811530E89307A105B10579
:104A900038F08FEF9FE7A0E0B0E002C080E090E048
:104AA000DF91CF91FF90EF90DF90CF900895CF935B
:104AB000DF93EC01898D9A8D009741F00E94CB28FD
:104AC000898D9A8D0E948D431A8E198EDF91CF9118
:104AD0000895DC015996ED91FC915A97309721F099
:104AE00081E09581911101C080E00895CF93DF931B
:104AF000EC019C012A5F3F4F41E050E060E070E034
:104B00008B8D9C8D0E94BE318823A1F08F89988D5A
:104B1000A98DBA8D892B8A2B8B2B59F48E819F817D
:104B2000A885B9858F8B988FA98FBA8F8C81806863
:104B30008C8381E0DF91CF910895CF92DF92EF9245
:104B4000FF921F93CF93DF93EC010E947625811192
:104B500002C080E04AC0EB8DFC8DCE80DF80E8840F
:104B6000F98482E0C81AD108E108F108058404C07C
:104B7000CC0CDD1CEE1CFF1C0A94D2F786859785B1
:104B8000A089B189C80ED91EEA1EFB1E148181E0DE
:104B9000C81AD108E108F108112361F0C701B60174
:104BA000610F711D811D911D0E940D30882389F2B6
:104BB0001150F2CFEB8DFC8D80E092E0A0E0B0E0F0
:104BC000058404C0880F991FAA1FBB1F0A94D2F73F
:104BD0004B895C896D897E89840F951FA61FB71F3D
:104BE0008B8B9C8BAD8BBE8B81E0DF91CF911F9126
:104BF000FF90EF90DF90CF900895CF93DF93EC017B
:104C0000462F6E857F85888999890E94D22F8823B7
:104C100041F08A8920E2829FC00111248153984F7C
:104C200002C080E090E0DF91CF910895FB019B01ED
:104C3000255F3F4F40E24193E217F307E1F7DC01C4
:104C400090E027E08D91882319F18E3219F0E0E091
:104C5000F3E008C02A3009F198E02AE0F3CF31965A
:104C60003817D9F034913111FACF2917B0F03FED50
:104C7000380F3E3590F431E0390FFB01E90FF11D9B
:104C80009FE9980F9A3108F480528083932FDACFEE
:104C900081E0FB019081903209F480E008950F9348
:104CA0001F93CF93DF93FC012581222311F080E035
:104CB00042C08B01EC01FB0187898031B1F482E0B5
:104CC0008D831F8A188E198E1A8E808D918DA0E08B
:104CD000B0E025E0880F991FAA1FBB1F2A95D1F7C6
:104CE0008B8B9C8BAD8BBE8B15C0803201F783E024
:104CF0008D83FB01428D538D648D758D4F8B588F45
:104D0000698F7A8F9E012D5E3F4FC8010E94B5309A
:104D1000882369F21C8F0B8F81E08C831E821F8297
:104D2000188619861A861B861C861D861E861F8677
:104D3000188A198A1A8ADF91CF911F910F910895CD
:104D40002F923F924F925F926F927F928F929F929B
:104D5000AF92BF92CF92DF92EF92FF920F931F9389
:104D6000CF93DF93EC015B014A018D81811103C078
:104D70008FEF9FEFD7C08C8180FFFACF4B885C8884
:104D80006D887E884A855B856C857D85C401A0E041
:104D9000B0E093018201041B150B260B370B08179B
:104DA00019072A073B0718F44201841A950A2401BF
:104DB0001E0126E0220E311C4114510409F47EC06C
:104DC0004A855B856C857D856A0181E0D822ED810D
:104DD0008A019B0189E036952795179507958A9555
:104DE000D1F78B8D9C8DE23061F4FC01828D938D27
:104DF000A48DB58DBC01CD01600F711F821F931F63
:104E00003FC0FC0174807A947022C114D104C9F4AB
:104E1000711017C0452B462B472B49F48F89988D6D
:104E2000A98DBA8D8E839F83A887B9870AC04E81CA
:104E30005F816885798591010E943130882309F46A
:104E400097CFEB8DFC8D8E819F81A885B9850297C8
:104E5000A109B109058404C0880F991FAA1FBB1FAF
:104E60000A94D2F74685578560897189840F951F0A
:104E7000A61FB71FBC01CD01670D711D811D911DBE
:104E800020E032E02C193D0932012415350508F4E3
:104E900039012C8126FD04C06114F2E07F0679F50A
:104EA0000091060210910702209108023091090238
:104EB000601771078207930719F421C0C40132C03B
:104EC000750183019601AB01BC018091CD079091E2
:104ED000CE070E94F52E882309F44ACFA60CB71CF2
:104EE0008A859B85AC85BD85860D971DA11DB11D4D
:104EF0008A879B87AC87BD87461857085DCF40E0FF
:104F00000E94D22F882309F433CFF601E153F84FE2
:104F1000D501CF01860D971DE817F907F9F2219108
:104F20002D93FACFDF91CF911F910F91FF90EF90CA
:104F3000DF90CF90BF90AF909F908F907F906F90B9
:104F40005F904F903F902F900895FF920F931F9383
:104F5000CF93DF931F92CDB7DEB7FC0125812230BE
:104F600018F480E090E033C08C01FC014285538549
:104F70006485758585E076956795579547958A95FB
:104F8000D1F7F42FFF70FF2E41E050E0BE016F5FBC
:104F90007F4FC8010E94A026019719F4898190E0F3
:104FA00002C08FEF9FEF0196E1F2F80182859385B1
:104FB000A485B5854F96A11DB11D82879387A487CF
:104FC000B587F0E2FF9EC00111248153984F0F90E6
:104FD000DF91CF911F910F91FF9008958F929F9233
:104FE000AF92BF92CF92DF92EF92FF920F931F93F7
:104FF000CF93DF93EC018D81811102C080E077C0F7
:105000000B891C892D893E89041715072607370748
:10501000A8F36A017B01823029F4CA86DB86EC861C
:10502000FD860DC0C114D104E104F10451F41E82C7
:105030001F82188619861A861B861C861D8681E0AB
:1050400056C08A849B84AC84BD84EB8DFC8D258501
:1050500030E0275F3F4FB501A4014150510961097C
:105060007109022E04C076956795579547950A9465
:10507000D2F7D701C6010197A109B10904C0B695BD
:10508000A795979587952A95D2F784179507A60730
:10509000B70720F089288A288B2849F44F89588D32
:1050A000698D7A8D4E835F836887798704C0841BFE
:1050B000950BA60BB70B4C015D018E010A5F1F4FCC
:1050C00081149104A104B10409F4A7CF4E815F813A
:1050D0006885798598018B8D9C8D0E94313091E097
:1050E000891A9108A108B1088111EACF87CFDF9111
:1050F000CF911F910F91FF90EF90DF90CF90BF90D5
:10510000AF909F908F9008950F931F93CF93DF934D
:10511000EC018D818823C9F18C8187FF30C061E06B
:10512000CE010E94FD258C01892B79F18D81823081
:1051300048F48B899C89AD89BE89F801848F958F4D
:10514000A68FB78F8F89988DA98DBA8DF801938F0F
:10515000828FB58BA48BE091C607F091C70730977B
:1051600059F0B8016A5E7F4FC80148961995F80159
:10517000808D918D938B828B8C818F778C83DF9147
:10518000CF911F910F910C94972F80E0DF91CF91D9
:105190001F910F910895CF93DF93EC010E94842813
:1051A000882311F01D8281E0DF91CF9108954F9205
:1051B0005F926F927F928F929F92AF92BF92EF9287
:1051C000FF920F931F93CF93DF9300D01F92CDB721
:1051D000DEB7FC0185818130E9F4848181FF1AC04A
:1051E00083899489A589B68984179507A607B70787
:1051F00088F0892B8A2B8B2B09F479C04A015B013B
:105200007F014284538464847584CF010E94EE2719
:10521000811102C080E06CC0F701838D948D8114F0
:105220009104A104B10471F44789508D618D728D90
:105230000E94D332882371F3F701178A108E118EE2
:10524000128E3AC0F70146815781608571859E01B3
:105250002F5F3F4F0E9431308823E1F249815A810C
:105260006B817C81F701838D948DFC01278920312E
:1052700029F008EF1FEF2FEF3FE004C008EF1FEF0A
:1052800020E030E04017510762077307A8F40E943E
:10529000D332882309F4BECFF70146815781608558
:1052A00071850FEF1FEF2FEF3FE0838D948D0E94EC
:1052B0001E31882309F4AECFF701838A948AA58A28
:1052C000B68A848180688483C7010E9484288823E9
:1052D00009F4A0CFB501A401481459046A047B0461
:1052E00010F4B301A201C7010E94EE2701C081E0C2
:1052F0000F900F900F900F90DF91CF911F910F9112
:10530000FF90EF90BF90AF909F908F907F906F90A5
:105310005F904F9008951F93CF93DF93EC0180E24D
:10532000689FF00111249F012153384FD9011B962A
:105330009C91917129F0842F827411F080E05BC000
:10534000142F6A8B8091060290910702A0910802A7
:10535000B09109028E879F87A88BB98BE153F84FD4
:105360004489558960E070E0BA01552744274F8B86
:10537000588F698F7A8F828D938DA0E0B0E0482B93
:10538000592B6A2B7B2B4F8B588F698F7A8FD901C2
:105390001B968C91887151F4848D958DA68DB78D57
:1053A0008B8B9C8BAD8BBE8B81E00DC0803131F639
:1053B0009E012D5E3F4F8B8D9C8D0E94B5308823C2
:1053C00009F4BCCF84E08D83812F8F708C831E8283
:1053D0001F82188619861A861B861C861D8616FF54
:1053E00009C040E050E0BA01CE01DF91CF911F919A
:1053F0000C94D72881E0DF91CF911F910895CF922F
:10540000DF92EF92FF920F931F93CF93DF93CDB76D
:10541000DEB72C970FB6F894DEBF0FBECDBFFC01F0
:1054200035813111C2C0D22E8B017C01BE016F5F6C
:105430007F4FCA010E941626882309F4B6C0F801DE
:10544000838D948DF701948F838FF80116821782D4
:1054500010861186128613861486158630E0F801B0
:1054600082859385A485B585438954896589768924
:1054700084179507A607B70708F041C025E0B69541
:10548000A795979587952A95D1F7F82FFF70CF2E7E
:10549000C8013C870E94A5273C85009709F485C078
:1054A000FC012081222309F484C0253E99F04BE0C1
:1054B00050E0BC01CE0101963C870E94DC443C8553
:1054C000892B69F68D2D8073803309F46EC04D2DC4
:1054D0006C2D67C031116BC0F701C28A4091060282
:1054E0005091070260910802709109024687578720
:1054F000608B718BFC01808131E08111B0CF8D2DEB
:105500008271823109F051C0332341F061E0C7015B
:105510000E94FD258C01892B79F447C0F801858113
:10552000823009F442C0C8010E949D258823E9F118
:10553000F701128A0FEC17E080E2F80111928A95C8
:10554000E9F78BE0FE013196D80101900D928A9522
:10555000E1F7E091C607F091C707309739F0B8013D
:10556000625F7F4FC8014096199509C081E298E2B9
:10557000F801918B808B80E098E097878687F8010F
:1055800080899189938B828B918F808F8685978577
:10559000978B868B0E94972F882339F04D2DF7012A
:1055A0006289C7010E948B2909C080E007C031E0F1
:1055B00056CF332309F490CF31E0A1CF2C960FB60C
:1055C000F894DEBF0FBECDBFDF91CF911F910F9139
:1055D000FF90EF90DF90CF9008952F923F924F92DF
:1055E0005F926F927F928F929F92AF92BF92CF9273
:1055F000DF92EF92FF920F931F93CF93DF9300D030
:105600001F92CDB7DEB78C016B013A01DC01159614
:105610008C9115978130C9F414968C9181FF15C037
:1056200082FF1DC0F8014389548965897689828586
:105630009385A485B58584179507A607B70779F0E4
:10564000C8010E94EE2781110AC081E090E0D801D4
:1056500013969C938E93129780E090E048C143018B
:1056600084C0D8015B968D919C915C97FC0154801D
:105670002FEF250D1A012B0139E0569447943794EA
:1056800027943A95D1F7522E52207A01F1E0FF2269
:10569000552009F476C080E092E08E199F095401EC
:1056A0008815990508F45C01D8015B962D913C9111
:1056B0005C9716968D919D910D90BC91A02D0297AF
:1056C000A109B109F901058404C0880F991FAA1F17
:1056D000BB1F0A94D2F74685578560897189840F6C
:1056E000951FA61FB71F9C01AD01250D311D411D42
:1056F000511D19012A01A11432E0B30609F088C036
:105700008091060290910702A0910802B0910902CF
:1057100082159305A405B50559F48FEF9FEFDC01C1
:105720008093060290930702A0930802B0930902A7
:105730009601B201A1018091CD079091CE070E9400
:10574000492F882309F481CF9EEFD91A8A189B0824
:10575000F80182859385A485B5858A0D9B1DA11DC1
:10576000B11D82879387A487B587D8011A964D917A
:105770005D916D917C911D978114910409F071CF19
:1057800087C0E114F10409F086CF16964D915D9122
:105790006D917C911997411551056105710559F479
:1057A00057968D919D910D90BC91A02D0097A105CC
:1057B000B10541F521C09E012F5F3F4F0E9431305E
:1057C000882309F44ACF89819A81AB81BC81F80191
:1057D000238D348DF9012789203129F048EF5FEFBF
:1057E0006FEF7FE004C048EF5FEF60E070E0841788
:1057F0009507A607B70730F0C8010E9476258111EA
:105800004ACF23CFF80186839783A087B18743CF00
:10581000E114F10429F5D8011A964D915D916D912D
:105820007C911D9753968D919D910D90BC91A02DCB
:10583000481759076A077B0798F00E94972F88231B
:1058400009F403CF20920602309207024092080228
:10585000509209028091CC0781608093CC0708C0E8
:1058600041E0C201B1010E94D22F882309F4EDCE9C
:10587000D601F701E153F84FCF018A0D9B1DE817C0
:10588000F90719F02D912193FACFCA0CDB1C5ECFDA
:105890005396CD90DD90ED90FC90569714968C9198
:1058A000C416D506E606F70640F4F801438B548B80
:1058B000658B768B806884830DC02091C6073091FC
:1058C000C707232B39F06114710421F08068D801D7
:1058D00014968C93F801848183FD02C0C30107C034
:1058E000C8010E948428882309F4AFCEF7CF0F9017
:1058F0000F900F900F90DF91CF911F910F91FF901C
:10590000EF90DF90CF90BF90AF909F908F907F905F
:105910006F905F904F903F902F900895CF93DF93BB
:105920001F92CDB7DEB7698341E050E0BE016F5FE3
:105930007F4F0E94ED2A0F90DF91CF9108958EBD89
:105940000DB407FEFDCF08958FEF0E949F2C8EB5FA
:10595000089561E0FC0184810C94AA1B60E0FC01C5
:1059600084810C94AA1BCF93DF93FC01868188234A
:10597000D1F08FEF8EBD4FEF878190859C012F5F17
:105980003F4F308727838130924028F40DB407FEC3
:10599000FDCF4EBDF1CF0DB407FEFDCFEF01CF011E
:1059A0000E94A92C1E82DF91CF910895673028F0C4
:1059B00026E1FC01258380E008958DB560FD02C0DD
:1059C000663011F48E7F01C081608DBD8CB58C7FF7
:1059D0008CBD9CB562FD02C080E001C082E066958E
:1059E0006170692B862B8CBD81E008950F931F9306
:1059F000CF93DF93EB010E943E1A8B010E94A42CEF
:105A00008F3F49F00E943E1A601B710B6C177D0797
:105A1000A8F380E001C081E0DF91CF911F910F9149
:105A20000895CF92DF92FF920F931F93CF93DF934E
:105A300000D01F92CDB7DEB76C01F62E29833A83D2
:105A40004B835C830E94B32CC6010E94AE2C6CE297
:105A500071E0C6010E94F62C8F2D80640E949F2C5D
:105A600008E110E05C814B813A812981DA01C901AA
:105A7000002E04C0B695A795979587950A94D2F7FE
:105A800029833A834B835C830E949F2C0850110921
:105A900029813A814B815C81083F8FEF180731F7EC
:105AA000FF2029F0E8E0FE1204C087E803C085E982
:105AB00001C08FEF0E949F2C10E00E94A42CF601E1
:105AC000828787FF04C01F3F11F01F5FF6CF0F9042
:105AD0000F900F900F90DF91CF911F910F91FF903A
